:020000040001F9
:10600000482B0020096C0100576B0100576B010001
:10601000576B0100576B0100576B01000000000037
:10602000000000000000000000000000576B0100AD
:10603000576B010000000000576B0100576B010017
:106040000321654A04234343D150704710B4C9B2B9
:106050008A00614B042444431A5110BC704701214B
:1060600081405E4A11607047012181405C4A1160A5
:10607000704700B50100C9B2002905D15948C9B21D
:1060800028225143401800E0002000BDF8B5070069
:106090000E001400002C01D0012500E00025EDB217
:1060A000002D04D100220021002000F035FA2760E5
:1060B00026710020A0600020A0810020E081002047
:1060C00020610020A0820020E08200206083002068
:1060D00020830020207700202062002024216054AB
:1060E0000020252160546846007826216054F1BDC7
:1060F000FBB507001600089D002E01D0012400E02A
:106100000024E4B2002C04D100220021002000F081
:1061100003FA0298002801D0012400E00024E4B230
:10612000002C04D100220021002000F0F5F9002D00
:1061300001D0012400E00024E4B2002C04D10022AC
:106140000021002000F0E8F93760002F02D06846F7
:10615000808800E000200299088000202880F7BD98
:1061600038B50400002C01D0012500E00025EDB277
:10617000002D04D100220021002000F0CDF920687C
:10618000A168002908D0E189A28989B2914203D28D
:10619000A168E289895C00E00021854A8150E0899C
:1061A000401CE081E089218B80B2884212D22068B5
:1061B000A168002908D0E189A28989B2914203D25D
:1061C000A168E289895C00E00021794A8150E08978
:1061D000401CE08131BD0000000700500805005060
:1061E0000C050050F4220020F8B507000C00002C2C
:1061F00001D10E208AE03800C0B2FFF73AFF050057
:10620000002D01D0012600E00026F6B2002E04D1B8
:1062100000220021002000F07FF9FFB2002F0CD1F6
:10622000E07E002801D0012300E00023DBB22A0039
:1062300003216048FFF72AFFFFE72069FFF70FFF00
:106240002069FFF7FDFE2069FFF709FF6068FFF78F
:10625000F7FEE068FFF7F4FE0021A068FFF7F6FE06
:106260002069287760682968A122D2008850E068F8
:106270002968514A8850A0682968A222D200885013
:10628000206829684D4A8850A07E4000617E8900C0
:106290000143207E08432968494A88500020296824
:1062A000842252008850042028562ADF0600002E3F
:1062B00004D000220021300000F02EF96169C9B23B
:1062C000042028562BDF0600002E04D000220021D7
:1062D000300000F021F90020286204202968C12242
:1062E000920088500420285626DF0600002E04D095
:1062F00000220021300000F00FF901202968A022BF
:10630000D20088500220242168540020F2BD0000F1
:1063100070B506003000C0B2FFF7ABFE0400002CE1
:1063200001D0012500E00025EDB2002D04D10022AE
:106330000021002000F0F0F8042020562ADF05009C
:10634000002D04D000220021280000F0E5F80420F0
:10635000205627DF0500002D04D000220021280050
:1063600000F0DAF800202168A022D2008850207FB7
:10637000FFF775FE0321207FFFF768FEFF202077DF
:106380000020C0432168A122D20088500020C043D1
:106390002168094A88500020C0432168A222D20007
:1063A00088500023220000210020FFF76FFE70BDFF
:1063B0001C050000003000400C0500002405000012
:1063C00054050000F8B507000E003800C0B2FFF712
:1063D00050FE0400002C01D0012500E00025EDB2A4
:1063E000002D04D100220021002000F095F8266243
:1063F000F1BDFFB583B00C9F6846007BFFF739FE07
:106400000400002C01D0012500E00025EDB2002D94
:1064100004D100220021002000F07EF80026002593
:106420000020694608712620205C00280BD001A8B6
:106430002EDF00900098002804D000220021009850
:1064400000F06AF80BE00420205627DF0090009847
:10645000002804D000220021009800F05DF82420DC
:10646000205C022836D16846808ABFB2B84201D289
:106470003D0001E06846858AADB2002D27D001209D
:10648000242160540020608300202521605425834E
:1064900020000E30009023000C33220008326846A2
:1064A000818A0498FFF724FE200016300090230014
:1064B000143322001032390089B20698FFF718FE13
:1064C000207FFFF7D1FD2000FFF74AFE04E0072000
:1064D000060001E0112006002620205C00280CD0D8
:1064E000684600792FDF00900098002804D0002231
:1064F0000021009800F010F80BE00420205626DF61
:1065000000900098002804D000220021009800F09C
:1065100003F8300007B0F0BD70B504000D001600A0
:106520000C2000F009F9FEE731B500246846007838
:10653000012812D10020FFF7EBFE0A2000F0FCF842
:1065400004002500002D04D0002200212800FFF7C0
:10655000E3FF01206F490870FFE731BDF0B589B056
:1065600004000F001600002501A86B491C2200F052
:10657000E9F8E4B2002CFFD0F6B2002E03D00120DF
:1065800001A9087602E0002001A9087601A92000EF
:10659000C0B2FFF729FE050000950098002804D03E
:1065A000002200210098FFF7B7FF39002000C0B299
:1065B000FFF708FF09B0F0BDF1B582B00F0016007B
:1065C0001C002000401C80B200903300220092B2D8
:1065D00039006846007AFFF70CFF05000095009827
:1065E000002804D0002200210098FFF795FFF7BD96
:1065F00080B54A480078002802D0012818D026E04B
:10660000012247490020FFF7A9FF8F204549087064
:106610000020444948700020434908700020424946
:1066200048700123404A3F490020FFF7C5FF0EE0B4
:1066300000223B490020FFF791FF64233A4A394981
:106640000020FFF7B9FF002034490870FFE7FA2067
:10665000800000F0A2F801BD70B582B000240020D7
:106660000090324B03220421002000F05DF9060067
:106670003500002D04D0002200212800FFF74CFF38
:1066800000222B49012000F05AF804002500002DBB
:1066900004D0002200212800FFF73EFF73BDF0B5B3
:1066A00083B0002350222349082000F0CDF90500D3
:1066B0002C00002C04D0002200212000FFF72CFF2A
:1066C000012600276C463A003100200000F0ECF96A
:1066D00068460078FE21014068460170684660DF28
:1066E000019001980400002C04D000220021200019
:1066F000FFF712FFF7BD80B5FFF7D1FFFFF7ACFF43
:10670000044800780028FBD0002002490870FFF7F9
:106710006FFFF5E700200020A46B01003F2300205D
:1067200029650100DC2100204022002004200020F7
:10673000CD0C0000A42200200100002070470300BF
:106740000020704770B4103A03D378C9103A78C06B
:10675000FBD2530701D318C918C001D508C908C016
:10676000D20704D30B880380891C801C002A01D522
:106770000B78037070BC704701B4401E00BF00BFAF
:1067800000BF00BF00BF00BF00BF00BF00BF00BF11
:1067900000BF00BFF1D101B0704701B500980028DB
:1067A00006D00098401E00900248FFF7E5FFF5E78D
:1067B00001BD0000E703000000B5800701D1012002
:1067C00000E00020C0B200BD0121C206D20E9140FF
:1067D000484A116070470121C206D20E9140464AD4
:1067E000116070470121C206D20E9140434A1160E8
:1067F0007047F0B540B2002822D5414C40B20207A4
:10680000120F083A1500AD08042255433C4A40B225
:1068100003071B0F083B9B0804267343D258FF2332
:106820008607B60F08277E43B3409A438B01DBB23D
:106830008607B60F08277E43B340134363511CE01D
:10684000304A40B203009B0804246343D258FF231C
:106850008407A40F08256C43A3409A438B01DBB245
:106860008407A40F08256C43A3401343254A40B274
:106870000400A40804256C431351F0BD01B4401E6C
:1068800000BF00BF00BF00BF00BF00BF00BF00BF10
:1068900000BF00BF00BF00BFF1D101B0704710B50D
:1068A00004001948046003211120FFF7A2FF10BD66
:1068B00080B51120FFF78FFF802040021449086047
:1068C00080204002134908600120134908602F20EE
:1068D000FFF7D4FF0120114908600020104908602B
:1068E0002F20FFF7CBFF00200849087001BD0D489D
:1068F0000068704700E100E080E100E080E200E035
:106900001CED00E000E400E0081501403E230020FB
:1069100048130140081301400410014008100140D1
:106920002823002004150140F5B581B00E001C009D
:10693000089F2000FFF740FF002801D107205DE0FD
:10694000002C01D1072059E0FFF7B2FF2D48076066
:106950002D4806702D48046000200500F6B2B542AF
:106960000EDA00202949096824226A43885400204D
:106970002649096824226A43891808756D1CEDE7C9
:10698000F6B22420704324180320214908701C48C3
:106990000460183400200500032D13DA184800683D
:1069A00008216943401800210170002141706946A7
:1069B000097A817044606946097A18225143641843
:1069C0006D1CE9E70020C04312490860002012490D
:1069D00008700020114908701420FFF703FF0321FD
:1069E0001420FFF706FF1420FFF7EEFE0198FFF7D3
:1069F00056FFFFF77CFF0A4908600020FEBD00003B
:106A0000202300202C2300203A2300201C230020D8
:106A10003B230020242300203C2300203D23002092
:106A20002823002000B5800701D1012000E00020CC
:106A3000C0B200BD70B505000C001600310020008A
:106A400080B2C046C04670BDF4B505000C001F0002
:106A5000002C01D107201BE02000FFF7E3FF0028F6
:106A600001D1072014E00D480460684600880A49F7
:106A700008800B4807600B49280010DF0600002E35
:106A800001D0300004E0012002490870162026DF02
:106A9000F2BD0000402300203823002034230020D2
:106AA00030230020356A01001206130A1A43130C22
:106AB0001A4300BF094205D0830705D00270401C6D
:106AC000491EF9D170470000130030B414001500BE
:106AD000103902D310393CC0FCD2490700D30CC096
:106AE00000D504C0890002D30280801C002900D593
:106AF000027030BC704700000022E5E730B401218D
:106B00000268001D002A0FD00368C31844680830CB
:106B10000C4202D04D466D1E64191D6825601B1D78
:106B2000241D121FECD0F8E730BC704730B40121AF
:106B300000220368001D002B0BD00468001D0C42CE
:106B400002D04D466D1E64192260241D1B1FF0D01B
:106B5000FAE730BC7047FEE710B5074979441831B1
:106B6000064C7C44163404E0081D0A6889188847DE
:106B70000100A142F8D110BD08000000280000006B
:106B8000ADFFFFFF400300000420002000000000D4
:106B90006DFFFFFF040000007C00000000200020CB
:106BA00000000000000000100100000003000000D1
:106BB00002000000040000000000000000000000CF
:106BC00000F00BF8002801D0FFF7C6FF0020C046F8
:106BD000C046FFF790FD00F002F80120704780B535
:106BE00000F002F801BD00000746384600F002F848
:106BF000FBE7000080B5C046C046024A11001820DD
:106C0000ABBEFBE726000200C046C046C046C046F9
:086C1000FFF7D6FF01000000B0
:0400000500016C0981
:00000001FF
