:020000040001F9
:10600000C828002031630100AF620100AF620100C7
:10601000AF620100AF620100AF620100000000004A
:10602000000000000000000000000000AF6201005E
:10603000AF62010000000000AF620100AF6201002A
:106040000321664A04234343D150704710B4C9B2B8
:106050008A00624B042444431A5110BC704701214A
:1060600081405F4A11607047012181405D4A1160A3
:106070007047F4B504000E00E4B2002C01D15A4D73
:1060800000E05A4DE4B2002C1BD10520FFF7D8FFE9
:106090000620FFF7D5FF00210720FFF7D7FF0820D4
:1060A000FFF7CEFF0520A121C90068500620504906
:1060B00068500720A221C90068500820FFF7CFFFD1
:1060C0001AE00520FFF7BCFF0620FFF7B9FF00210B
:1060D0000720FFF7BBFF0820FFF7B2FF0520A12133
:1060E000C90068500620424968500720A221C90013
:1060F00068500820FFF7B3FF802040053D496850F5
:10610000F6B2002E05D0022E09D005D3032E09D0F9
:106110000BE0002007000AE00220070007E004204F
:10612000070004E00620070001E0002007006846A1
:106130000078002804D0012038432F49685001E03E
:106140002D482F5000208421490068500120A021B3
:10615000C90068502800F2BDFEB582B007000024D7
:1061600000253E002048874202D10820009001E02F
:10617000082000900098FFF777FF68460089ADB2CD
:10618000854224D20398ADB2405D1C4970508420F2
:1061900040003058002805D1FA208000844201D206
:1061A000641CF4E7FA208000844204D10098FFF7D1
:1061B00056FF00200FE00020842149007050A320EA
:1061C000C00030580499ADB248556D1CD5E7009811
:1061D000FFF745FF012005B0F0BD000000070050AB
:1061E000080500500C050050003000400040004001
:1061F0000C05000024050000540500001C050000EB
:1062000010B50024002200210020FFF732FF040017
:106210008F200A490870002008494870002008496A
:106220000870002006494870054B044A02212000EE
:10623000FFF792FF0A2000F016F8E9E7002000209F
:106240006420002001B4401E00BF00BF00BF00BF9B
:1062500000BF00BF00BF00BF00BF00BF00BF00BF46
:10626000F1D101B0704701B50098002806D0009820
:10627000401E00900248FFF7E5FFF5E701BD000072
:10628000E703000030B4012100220368001D002B49
:106290000BD00468001D0C4202D04D466D1E6419DF
:1062A0002260241D1B1FF0D0FAE730BC7047FEE7C8
:1062B00010B5074979441831064C7C44163404E083
:1062C000081D0A68891888470100A142F8D110BD4D
:1062D0000800000014000000ADFFFFFFC800000030
:1062E000002000200000000000F00BF8002801D082
:1062F000FFF7DEFF0020C046C046FFF781FF00F039
:1063000002F80120704780B500F002F801BD0000DE
:106310000746384600F002F8FBE7000080B5C046AB
:10632000C046024A11001820ABBEFBE7260002005F
:0C633000C046C046C046C046FFF7D6FF7E
:040000050001633162
:00000001FF
